{
  "abi": [
    {
      "inputs": [
        {
          "internalType": "address",
          "name": "_axiomV2QueryAddress",
          "type": "address"
        },
        {
          "internalType": "uint64",
          "name": "_callbackSourceChainId",
          "type": "uint64"
        },
        {
          "internalType": "bytes32",
          "name": "_querySchema",
          "type": "bytes32"
        }
      ],
      "stateMutability": "nonpayable",
      "type": "constructor"
    },
    {
      "inputs": [],
      "name": "AxiomV2QueryAddressIsZero",
      "type": "error"
    },
    {
      "inputs": [],
      "name": "CallerMustBeAxiomV2Query",
      "type": "error"
    },
    {
      "anonymous": false,
      "inputs": [
        {
          "indexed": true,
          "internalType": "address",
          "name": "owner",
          "type": "address"
        },
        {
          "indexed": true,
          "internalType": "address",
          "name": "approved",
          "type": "address"
        },
        {
          "indexed": true,
          "internalType": "uint256",
          "name": "tokenId",
          "type": "uint256"
        }
      ],
      "name": "Approval",
      "type": "event"
    },
    {
      "anonymous": false,
      "inputs": [
        {
          "indexed": true,
          "internalType": "address",
          "name": "owner",
          "type": "address"
        },
        {
          "indexed": true,
          "internalType": "address",
          "name": "operator",
          "type": "address"
        },
        {
          "indexed": false,
          "internalType": "bool",
          "name": "approved",
          "type": "bool"
        }
      ],
      "name": "ApprovalForAll",
      "type": "event"
    },
    {
      "anonymous": false,
      "inputs": [
        {
          "indexed": true,
          "internalType": "uint64",
          "name": "sourceChainId",
          "type": "uint64"
        },
        {
          "indexed": false,
          "internalType": "address",
          "name": "caller",
          "type": "address"
        },
        {
          "indexed": true,
          "internalType": "bytes32",
          "name": "querySchema",
          "type": "bytes32"
        },
        {
          "indexed": true,
          "internalType": "uint256",
          "name": "queryId",
          "type": "uint256"
        }
      ],
      "name": "AxiomV2Call",
      "type": "event"
    },
    {
      "anonymous": false,
      "inputs": [
        {
          "indexed": true,
          "internalType": "uint64",
          "name": "sourceChainId",
          "type": "uint64"
        },
        {
          "indexed": false,
          "internalType": "address",
          "name": "caller",
          "type": "address"
        },
        {
          "indexed": true,
          "internalType": "bytes32",
          "name": "querySchema",
          "type": "bytes32"
        },
        {
          "indexed": true,
          "internalType": "uint256",
          "name": "queryId",
          "type": "uint256"
        }
      ],
      "name": "AxiomV2OffchainCall",
      "type": "event"
    },
    {
      "anonymous": false,
      "inputs": [
        {
          "indexed": true,
          "internalType": "address",
          "name": "from",
          "type": "address"
        },
        {
          "indexed": true,
          "internalType": "address",
          "name": "to",
          "type": "address"
        },
        {
          "indexed": true,
          "internalType": "uint256",
          "name": "tokenId",
          "type": "uint256"
        }
      ],
      "name": "Transfer",
      "type": "event"
    },
    {
      "inputs": [
        {
          "internalType": "address",
          "name": "to",
          "type": "address"
        },
        {
          "internalType": "uint256",
          "name": "tokenId",
          "type": "uint256"
        }
      ],
      "name": "approve",
      "outputs": [],
      "stateMutability": "nonpayable",
      "type": "function"
    },
    {
      "inputs": [
        {
          "internalType": "uint64",
          "name": "sourceChainId",
          "type": "uint64"
        },
        {
          "internalType": "address",
          "name": "caller",
          "type": "address"
        },
        {
          "internalType": "bytes32",
          "name": "querySchema",
          "type": "bytes32"
        },
        {
          "internalType": "uint256",
          "name": "queryId",
          "type": "uint256"
        },
        {
          "internalType": "bytes32[]",
          "name": "axiomResults",
          "type": "bytes32[]"
        },
        {
          "internalType": "bytes",
          "name": "extraData",
          "type": "bytes"
        }
      ],
      "name": "axiomV2Callback",
      "outputs": [],
      "stateMutability": "nonpayable",
      "type": "function"
    },
    {
      "inputs": [
        {
          "internalType": "uint64",
          "name": "sourceChainId",
          "type": "uint64"
        },
        {
          "internalType": "address",
          "name": "caller",
          "type": "address"
        },
        {
          "internalType": "bytes32",
          "name": "querySchema",
          "type": "bytes32"
        },
        {
          "internalType": "uint256",
          "name": "queryId",
          "type": "uint256"
        },
        {
          "internalType": "bytes32[]",
          "name": "axiomResults",
          "type": "bytes32[]"
        },
        {
          "internalType": "bytes",
          "name": "extraData",
          "type": "bytes"
        }
      ],
      "name": "axiomV2OffchainCallback",
      "outputs": [],
      "stateMutability": "nonpayable",
      "type": "function"
    },
    {
      "inputs": [],
      "name": "axiomV2QueryAddress",
      "outputs": [
        {
          "internalType": "address",
          "name": "",
          "type": "address"
        }
      ],
      "stateMutability": "view",
      "type": "function"
    },
    {
      "inputs": [
        {
          "internalType": "address",
          "name": "owner",
          "type": "address"
        }
      ],
      "name": "balanceOf",
      "outputs": [
        {
          "internalType": "uint256",
          "name": "",
          "type": "uint256"
        }
      ],
      "stateMutability": "view",
      "type": "function"
    },
    {
      "inputs": [
        {
          "internalType": "uint256",
          "name": "tokenId",
          "type": "uint256"
        }
      ],
      "name": "getApproved",
      "outputs": [
        {
          "internalType": "address",
          "name": "",
          "type": "address"
        }
      ],
      "stateMutability": "view",
      "type": "function"
    },
    {
      "inputs": [
        {
          "internalType": "address",
          "name": "owner",
          "type": "address"
        },
        {
          "internalType": "address",
          "name": "operator",
          "type": "address"
        }
      ],
      "name": "isApprovedForAll",
      "outputs": [
        {
          "internalType": "bool",
          "name": "",
          "type": "bool"
        }
      ],
      "stateMutability": "view",
      "type": "function"
    },
    {
      "inputs": [],
      "name": "name",
      "outputs": [
        {
          "internalType": "string",
          "name": "",
          "type": "string"
        }
      ],
      "stateMutability": "view",
      "type": "function"
    },
    {
      "inputs": [
        {
          "internalType": "uint256",
          "name": "tokenId",
          "type": "uint256"
        }
      ],
      "name": "ownerOf",
      "outputs": [
        {
          "internalType": "address",
          "name": "",
          "type": "address"
        }
      ],
      "stateMutability": "view",
      "type": "function"
    },
    {
      "inputs": [
        {
          "internalType": "address",
          "name": "from",
          "type": "address"
        },
        {
          "internalType": "address",
          "name": "to",
          "type": "address"
        },
        {
          "internalType": "uint256",
          "name": "tokenId",
          "type": "uint256"
        }
      ],
      "name": "safeTransferFrom",
      "outputs": [],
      "stateMutability": "nonpayable",
      "type": "function"
    },
    {
      "inputs": [
        {
          "internalType": "address",
          "name": "from",
          "type": "address"
        },
        {
          "internalType": "address",
          "name": "to",
          "type": "address"
        },
        {
          "internalType": "uint256",
          "name": "tokenId",
          "type": "uint256"
        },
        {
          "internalType": "bytes",
          "name": "data",
          "type": "bytes"
        }
      ],
      "name": "safeTransferFrom",
      "outputs": [],
      "stateMutability": "nonpayable",
      "type": "function"
    },
    {
      "inputs": [
        {
          "internalType": "address",
          "name": "operator",
          "type": "address"
        },
        {
          "internalType": "bool",
          "name": "approved",
          "type": "bool"
        }
      ],
      "name": "setApprovalForAll",
      "outputs": [],
      "stateMutability": "nonpayable",
      "type": "function"
    },
    {
      "inputs": [
        {
          "internalType": "bytes4",
          "name": "interfaceId",
          "type": "bytes4"
        }
      ],
      "name": "supportsInterface",
      "outputs": [
        {
          "internalType": "bool",
          "name": "",
          "type": "bool"
        }
      ],
      "stateMutability": "view",
      "type": "function"
    },
    {
      "inputs": [],
      "name": "symbol",
      "outputs": [
        {
          "internalType": "string",
          "name": "",
          "type": "string"
        }
      ],
      "stateMutability": "view",
      "type": "function"
    },
    {
      "inputs": [
        {
          "internalType": "uint256",
          "name": "tokenId",
          "type": "uint256"
        }
      ],
      "name": "tokenURI",
      "outputs": [
        {
          "internalType": "string",
          "name": "",
          "type": "string"
        }
      ],
      "stateMutability": "view",
      "type": "function"
    },
    {
      "inputs": [
        {
          "internalType": "address",
          "name": "from",
          "type": "address"
        },
        {
          "internalType": "address",
          "name": "to",
          "type": "address"
        },
        {
          "internalType": "uint256",
          "name": "tokenId",
          "type": "uint256"
        }
      ],
      "name": "transferFrom",
      "outputs": [],
      "stateMutability": "nonpayable",
      "type": "function"
    }
  ],
  "bytecode": {
    "object": "0x60e06040523480156200001157600080fd5b5060405162001ab238038062001ab28339810160408190526200003491620000e1565b604080518082018252600e81526d105e1a5bdb54d85b5c1b1953919560921b602080830191909152825180840190935260058352641054d3919560da1b9083015290846001600160a01b0381166200009f5760405163d86f565560e01b815260040160405180910390fd5b6001600160a01b03166080526000620000b98382620001e4565b506001620000c88282620001e4565b50505060a0526001600160401b031660c05250620002b0565b600080600060608486031215620000f757600080fd5b83516001600160a01b03811681146200010f57600080fd5b60208501519093506001600160401b03811681146200012d57600080fd5b80925050604084015190509250925092565b634e487b7160e01b600052604160045260246000fd5b600181811c908216806200016a57607f821691505b6020821081036200018b57634e487b7160e01b600052602260045260246000fd5b50919050565b601f821115620001df57600081815260208120601f850160051c81016020861015620001ba5750805b601f850160051c820191505b81811015620001db57828155600101620001c6565b5050505b505050565b81516001600160401b038111156200020057620002006200013f565b620002188162000211845462000155565b8462000191565b602080601f831160018114620002505760008415620002375750858301515b600019600386901b1c1916600185901b178555620001db565b600085815260208120601f198616915b82811015620002815788860151825594840194600190910190840162000260565b5085821015620002a05787850151600019600388901b60f8161c191681555b5050505050600190811b01905550565b60805160a05160c0516117c4620002ee6000396000610ae001526000610b6301526000818161019a01528181610608015261079101526117c46000f3fe608060405234801561001057600080fd5b50600436106101005760003560e01c806370a0823111610097578063b88d4fde11610066578063b88d4fde14610231578063c87b56dd14610244578063dc5cd53c14610257578063e985e9c51461026a57600080fd5b806370a08231146101e25780638193399c1461020357806395d89b4114610216578063a22cb4651461021e57600080fd5b806323b872dd116100d357806323b872dd146101825780632a75d3be1461019557806342842e0e146101bc5780636352211e146101cf57600080fd5b806301ffc9a71461010557806306fdde031461012d578063081812fc14610142578063095ea7b31461016d575b600080fd5b6101186101133660046111eb565b6102a6565b60405190151581526020015b60405180910390f35b6101356102f8565b6040516101249190611258565b61015561015036600461126b565b61038a565b6040516001600160a01b039091168152602001610124565b61018061017b3660046112a0565b6103b1565b005b6101806101903660046112ca565b6104cb565b6101557f000000000000000000000000000000000000000000000000000000000000000081565b6101806101ca3660046112ca565b6104fc565b6101556101dd36600461126b565b610517565b6101f56101f0366004611306565b610577565b604051908152602001610124565b61018061021136600461136a565b6105fd565b6101356106bc565b61018061022c366004611449565b6106cb565b61018061023f36600461149b565b6106da565b61013561025236600461126b565b610712565b61018061026536600461136a565b610786565b610118610278366004611577565b6001600160a01b03918216600090815260056020908152604080832093909416825291909152205460ff1690565b60006001600160e01b031982166380ac58cd60e01b14806102d757506001600160e01b03198216635b5e139f60e01b145b806102f257506301ffc9a760e01b6001600160e01b03198316145b92915050565b606060008054610307906115aa565b80601f0160208091040260200160405190810160405280929190818152602001828054610333906115aa565b80156103805780601f1061035557610100808354040283529160200191610380565b820191906000526020600020905b81548152906001019060200180831161036357829003601f168201915b5050505050905090565b60006103958261082b565b506000908152600460205260409020546001600160a01b031690565b60006103bc82610517565b9050806001600160a01b0316836001600160a01b03160361042e5760405162461bcd60e51b815260206004820152602160248201527f4552433732313a20617070726f76616c20746f2063757272656e74206f776e656044820152603960f91b60648201526084015b60405180910390fd5b336001600160a01b038216148061044a575061044a8133610278565b6104bc5760405162461bcd60e51b815260206004820152603d60248201527f4552433732313a20617070726f76652063616c6c6572206973206e6f7420746f60448201527f6b656e206f776e6572206f7220617070726f76656420666f7220616c6c0000006064820152608401610425565b6104c6838361088d565b505050565b6104d533826108fb565b6104f15760405162461bcd60e51b8152600401610425906115e4565b6104c683838361097a565b6104c6838383604051806020016040528060008152506106da565b6000818152600260205260408120546001600160a01b0316806102f25760405162461bcd60e51b8152602060048201526018602482015277115490cdcc8c4e881a5b9d985b1a59081d1bdad95b88125160421b6044820152606401610425565b60006001600160a01b0382166105e15760405162461bcd60e51b815260206004820152602960248201527f4552433732313a2061646472657373207a65726f206973206e6f7420612076616044820152683634b21037bbb732b960b91b6064820152608401610425565b506001600160a01b031660009081526003602052604090205490565b336001600160a01b037f00000000000000000000000000000000000000000000000000000000000000001614610646576040516312e71c9f60e11b815260040160405180910390fd5b6040516001600160a01b03881681528590879067ffffffffffffffff8b16907fd6d9923f6afa6ae6afc97c99da22b8ccadc9beafe897857b2434da0a402da98c9060200160405180910390a46106a26001898989898787610ade565b6106b28888888888888888610bd0565b5050505050505050565b606060018054610307906115aa565b6106d6338383610c90565b5050565b6106e433836108fb565b6107005760405162461bcd60e51b8152600401610425906115e4565b61070c84848484610d5e565b50505050565b606061071d8261082b565b600061073460408051602081019091526000815290565b90506000815111610754576040518060200160405280600081525061077f565b8061075e84610d91565b60405160200161076f929190611631565b6040516020818303038152906040525b9392505050565b336001600160a01b037f000000000000000000000000000000000000000000000000000000000000000016146107cf576040516312e71c9f60e11b815260040160405180910390fd5b6040516001600160a01b03881681528590879067ffffffffffffffff8b16907fc6d3309bf887e48755c9a455e332b73641b6bf2fd018e3b608bf21676c4c0af59060200160405180910390a46106a26000898989898787610ade565b6000818152600260205260409020546001600160a01b031661088a5760405162461bcd60e51b8152602060048201526018602482015277115490cdcc8c4e881a5b9d985b1a59081d1bdad95b88125160421b6044820152606401610425565b50565b600081815260046020526040902080546001600160a01b0319166001600160a01b03841690811790915581906108c282610517565b6001600160a01b03167f8c5be1e5ebec7d5bd14f71427d1e84f3dd0314c0f7b2291e5b200ac8c7c3b92560405160405180910390a45050565b60008061090783610517565b9050806001600160a01b0316846001600160a01b0316148061094e57506001600160a01b0380821660009081526005602090815260408083209388168352929052205460ff165b806109725750836001600160a01b03166109678461038a565b6001600160a01b0316145b949350505050565b826001600160a01b031661098d82610517565b6001600160a01b0316146109b35760405162461bcd60e51b815260040161042590611660565b6001600160a01b038216610a155760405162461bcd60e51b8152602060048201526024808201527f4552433732313a207472616e7366657220746f20746865207a65726f206164646044820152637265737360e01b6064820152608401610425565b826001600160a01b0316610a2882610517565b6001600160a01b031614610a4e5760405162461bcd60e51b815260040161042590611660565b600081815260046020908152604080832080546001600160a01b03199081169091556001600160a01b0387811680865260038552838620805460001901905590871680865283862080546001019055868652600290945282852080549092168417909155905184937fddf252ad1be2c89b69c2b068fc378daa952ba7f163c4a11628f55a4df523b3ef91a4505050565b7f000000000000000000000000000000000000000000000000000000000000000067ffffffffffffffff168667ffffffffffffffff1614610b615760405162461bcd60e51b815260206004820152601e60248201527f536f7572636520636861696e20494420646f6573206e6f74206d6174636800006044820152606401610425565b7f00000000000000000000000000000000000000000000000000000000000000008414610bc75760405162461bcd60e51b8152602060048201526014602482015273496e76616c696420717565727920736368656d6160601b6044820152606401610425565b50505050505050565b600084846002818110610be557610be56116a5565b9050602002013560001c9050600085856003818110610c0657610c066116a5565b9050602002013560001c905060008111610c625760405162461bcd60e51b815260206004820152601d60248201527f6d696e746572206d7573742068617665204c696e6b20546f6b656e21210000006044820152606401610425565b6006805460009182610c73836116bb565b919050559050610c838382610e24565b5050505050505050505050565b816001600160a01b0316836001600160a01b031603610cf15760405162461bcd60e51b815260206004820152601960248201527f4552433732313a20617070726f766520746f2063616c6c6572000000000000006044820152606401610425565b6001600160a01b03838116600081815260056020908152604080832094871680845294825291829020805460ff191686151590811790915591519182527f17307eab39ab6107e8899845ad3d59bd9653f200f220920489ca2b5937696c31910160405180910390a3505050565b610d6984848461097a565b610d7584848484610e3e565b61070c5760405162461bcd60e51b8152600401610425906116e2565b60606000610d9e83610f3f565b600101905060008167ffffffffffffffff811115610dbe57610dbe611485565b6040519080825280601f01601f191660200182016040528015610de8576020820181803683370190505b5090508181016020015b600019016f181899199a1a9b1b9c1cb0b131b232b360811b600a86061a8153600a8504945084610df257509392505050565b6106d6828260405180602001604052806000815250611017565b60006001600160a01b0384163b15610f3457604051630a85bd0160e11b81526001600160a01b0385169063150b7a0290610e82903390899088908890600401611734565b6020604051808303816000875af1925050508015610ebd575060408051601f3d908101601f19168201909252610eba91810190611771565b60015b610f1a573d808015610eeb576040519150601f19603f3d011682016040523d82523d6000602084013e610ef0565b606091505b508051600003610f125760405162461bcd60e51b8152600401610425906116e2565b805181602001fd5b6001600160e01b031916630a85bd0160e11b149050610972565b506001949350505050565b60008072184f03e93ff9f4daa797ed6e38ed64bf6a1f0160401b8310610f7e5772184f03e93ff9f4daa797ed6e38ed64bf6a1f0160401b830492506040015b6d04ee2d6d415b85acef81000000008310610faa576d04ee2d6d415b85acef8100000000830492506020015b662386f26fc100008310610fc857662386f26fc10000830492506010015b6305f5e1008310610fe0576305f5e100830492506008015b6127108310610ff457612710830492506004015b60648310611006576064830492506002015b600a83106102f25760010192915050565b611021838361104a565b61102e6000848484610e3e565b6104c65760405162461bcd60e51b8152600401610425906116e2565b6001600160a01b0382166110a05760405162461bcd60e51b815260206004820181905260248201527f4552433732313a206d696e7420746f20746865207a65726f20616464726573736044820152606401610425565b6000818152600260205260409020546001600160a01b0316156111055760405162461bcd60e51b815260206004820152601c60248201527f4552433732313a20746f6b656e20616c7265616479206d696e746564000000006044820152606401610425565b6000818152600260205260409020546001600160a01b03161561116a5760405162461bcd60e51b815260206004820152601c60248201527f4552433732313a20746f6b656e20616c7265616479206d696e746564000000006044820152606401610425565b6001600160a01b038216600081815260036020908152604080832080546001019055848352600290915280822080546001600160a01b0319168417905551839291907fddf252ad1be2c89b69c2b068fc378daa952ba7f163c4a11628f55a4df523b3ef908290a45050565b6001600160e01b03198116811461088a57600080fd5b6000602082840312156111fd57600080fd5b813561077f816111d5565b60005b8381101561122357818101518382015260200161120b565b50506000910152565b60008151808452611244816020860160208601611208565b601f01601f19169290920160200192915050565b60208152600061077f602083018461122c565b60006020828403121561127d57600080fd5b5035919050565b80356001600160a01b038116811461129b57600080fd5b919050565b600080604083850312156112b357600080fd5b6112bc83611284565b946020939093013593505050565b6000806000606084860312156112df57600080fd5b6112e884611284565b92506112f660208501611284565b9150604084013590509250925092565b60006020828403121561131857600080fd5b61077f82611284565b60008083601f84011261133357600080fd5b50813567ffffffffffffffff81111561134b57600080fd5b60208301915083602082850101111561136357600080fd5b9250929050565b60008060008060008060008060c0898b03121561138657600080fd5b883567ffffffffffffffff808216821461139f57600080fd5b8199506113ae60208c01611284565b985060408b0135975060608b0135965060808b01359150808211156113d257600080fd5b818b0191508b601f8301126113e657600080fd5b8135818111156113f557600080fd5b8c60208260051b850101111561140a57600080fd5b6020830196508095505060a08b013591508082111561142857600080fd5b506114358b828c01611321565b999c989b5096995094979396929594505050565b6000806040838503121561145c57600080fd5b61146583611284565b91506020830135801515811461147a57600080fd5b809150509250929050565b634e487b7160e01b600052604160045260246000fd5b600080600080608085870312156114b157600080fd5b6114ba85611284565b93506114c860208601611284565b925060408501359150606085013567ffffffffffffffff808211156114ec57600080fd5b818701915087601f83011261150057600080fd5b81358181111561151257611512611485565b604051601f8201601f19908116603f0116810190838211818310171561153a5761153a611485565b816040528281528a602084870101111561155357600080fd5b82602086016020830137600060208483010152809550505050505092959194509250565b6000806040838503121561158a57600080fd5b61159383611284565b91506115a160208401611284565b90509250929050565b600181811c908216806115be57607f821691505b6020821081036115de57634e487b7160e01b600052602260045260246000fd5b50919050565b6020808252602d908201527f4552433732313a2063616c6c6572206973206e6f7420746f6b656e206f776e6560408201526c1c881bdc88185c1c1c9bdd9959609a1b606082015260800190565b60008351611643818460208801611208565b835190830190611657818360208801611208565b01949350505050565b60208082526025908201527f4552433732313a207472616e736665722066726f6d20696e636f72726563742060408201526437bbb732b960d91b606082015260800190565b634e487b7160e01b600052603260045260246000fd5b6000600182016116db57634e487b7160e01b600052601160045260246000fd5b5060010190565b60208082526032908201527f4552433732313a207472616e7366657220746f206e6f6e20455243373231526560408201527131b2b4bb32b91034b6b83632b6b2b73a32b960711b606082015260800190565b6001600160a01b03858116825284166020820152604081018390526080606082018190526000906117679083018461122c565b9695505050505050565b60006020828403121561178357600080fd5b815161077f816111d556fea2646970667358221220fba85fa0c65a452b676dc6126ac31e2c8a90835fc929be1bb9b3af5938b7b8ae64736f6c63430008140033",
    "linkReferences": {}
  },
  "methodIdentifiers": {
    "approve(address,uint256)": "095ea7b3",
    "axiomV2Callback(uint64,address,bytes32,uint256,bytes32[],bytes)": "dc5cd53c",
    "axiomV2OffchainCallback(uint64,address,bytes32,uint256,bytes32[],bytes)": "8193399c",
    "axiomV2QueryAddress()": "2a75d3be",
    "balanceOf(address)": "70a08231",
    "getApproved(uint256)": "081812fc",
    "isApprovedForAll(address,address)": "e985e9c5",
    "name()": "06fdde03",
    "ownerOf(uint256)": "6352211e",
    "safeTransferFrom(address,address,uint256)": "42842e0e",
    "safeTransferFrom(address,address,uint256,bytes)": "b88d4fde",
    "setApprovalForAll(address,bool)": "a22cb465",
    "supportsInterface(bytes4)": "01ffc9a7",
    "symbol()": "95d89b41",
    "tokenURI(uint256)": "c87b56dd",
    "transferFrom(address,address,uint256)": "23b872dd"
  },
  "id": 35
}