{
  "_format": "hh-sol-artifact-1",
  "contractName": "Sudoku",
  "sourceName": "contracts/Sudoku.sol",
  "abi": [
    {
      "inputs": [
        {
          "internalType": "address",
          "name": "_verifierAddr",
          "type": "address"
        }
      ],
      "stateMutability": "nonpayable",
      "type": "constructor"
    },
    {
      "inputs": [
        {
          "internalType": "string",
          "name": "stringTime",
          "type": "string"
        }
      ],
      "name": "generateSudokuBoard",
      "outputs": [
        {
          "internalType": "uint8[9][9]",
          "name": "",
          "type": "uint8[9][9]"
        }
      ],
      "stateMutability": "view",
      "type": "function"
    },
    {
      "inputs": [],
      "name": "verifierAddr",
      "outputs": [
        {
          "internalType": "address",
          "name": "",
          "type": "address"
        }
      ],
      "stateMutability": "view",
      "type": "function"
    },
    {
      "inputs": [
        {
          "internalType": "uint256[2]",
          "name": "a",
          "type": "uint256[2]"
        },
        {
          "internalType": "uint256[2][2]",
          "name": "b",
          "type": "uint256[2][2]"
        },
        {
          "internalType": "uint256[2]",
          "name": "c",
          "type": "uint256[2]"
        },
        {
          "internalType": "uint256[81]",
          "name": "input",
          "type": "uint256[81]"
        }
      ],
      "name": "verifyProof",
      "outputs": [
        {
          "internalType": "bool",
          "name": "",
          "type": "bool"
        }
      ],
      "stateMutability": "view",
      "type": "function"
    },
    {
      "inputs": [
        {
          "internalType": "uint256[2]",
          "name": "a",
          "type": "uint256[2]"
        },
        {
          "internalType": "uint256[2][2]",
          "name": "b",
          "type": "uint256[2][2]"
        },
        {
          "internalType": "uint256[2]",
          "name": "c",
          "type": "uint256[2]"
        },
        {
          "internalType": "uint256[81]",
          "name": "input",
          "type": "uint256[81]"
        }
      ],
      "name": "verifySudoku",
      "outputs": [
        {
          "internalType": "bool",
          "name": "",
          "type": "bool"
        }
      ],
      "stateMutability": "view",
      "type": "function"
    }
  ],
  "bytecode": "0x6001610200818152600261022081905260076102408190526005610260819052600861028081905260046102a081905260066102c081905260096102e0819052600361030081905260e09889526103208581526103408790526103608490526103808290526103a08890526103c08390526103e08b9052610400899052610420859052610100526104408181526104608590526104808390526104a08490526104c08990526104e08b9052610500869052610520889052610540879052610120526105608481526105808890526105a08b90526105c08390526105e0879052610600869052610620899052610640829052610660849052610140526106808881526106a08490526106c08690526106e08890526107008b9052610720829052610740879052610760859052610780839052610160526107a08281526107c08290526107e08790526108008590526108208490526108408990526108608890526108808b90526108a0869052610180526108c08681526108e08690526109008290526109208990526109408390526109608890526109808590526109a08490526109c08b90526101a0526109e0878152610a008b9052610a20859052610a40869052610a60829052610a80849052610aa0839052610ac0879052610ae08990526101c052610b00838152610b20839052610b40899052610b608b9052610b80859052610ba0879052610bc08290526000610be0819052610c008990526101e0919091526080998a52610d40818152610d608a9052610d80899052610da0889052610dc0829052610de0869052610e00829052610e20829052610e40829052610c20908152610e60828152610e80839052610ea0839052610ec0849052610ee08a9052610f00839052610f20839052610f40839052610f60879052610c4052610f80838152610fa0839052610fc0839052610fe0839052611000839052611020839052611040889052611060839052611080839052610c60526110a08681526110c08a90526110e08390526111008590526111208990526111408890526111608390526111808490526111a0869052610c80526111c08a81526111e08690526112008890526112208a90526112408d90526112608390526112808390526112a08790526112c0859052610ca0526112e08281526113008390526113208390526113408390526113608390526113808b90526113a08390526113c08d90526113e0889052610cc0526114008281526114208890526114408490526114608390526114808590526114a08390526114c08790526114e0839052611500839052610ce0526115208981526115408d90526115608390526115808390526115a08390526115c08390526115e08590526116008390526116208b9052610d00526116408281526116608390526116808390526116a08390526116c08390526116e08990526117008390526117208390526117408a9052610d205260a0526118808181526118a08290526118c08290526118e08290526119008290526119208590526119408290526119608290526119808290526117609081526119a08281526119c08390526119e08a9052611a008b9052611a20839052611a40839052611a60889052611a80839052611aa083905261178052611ac0848152611ae0839052611b00869052611b20889052611b40839052611b60839052611b80839052611ba08d9052611bc08390526117a052611be0838152611c00839052611c20839052611c408a9052611c60839052611c80839052611ca0839052611cc08b9052611ce08590526117c052611d00828152611d20839052611d40839052611d60839052611d80839052611da0839052611dc0839052611de0839052611e008390526117e052611e20868152611e40839052611e60839052611e80899052611ea0839052611ec0839052611ee0839052611f008a9052611f2083905261180052611f40948552611f60889052611f80829052611fa08c9052611fc0829052611fe0829052612000829052612020829052612040829052611820949094526120609586526120808190526120a08b90526120c08190526120e096909652612100869052612120819052612140869052612160869052611840949094526122a06040526121809586526121a0526121c0959095526121e083905261220083905261222083905261224083905261226092909252612280919091526118609190915260c09190915262000665929190620006bc565b503480156200067357600080fd5b50604051620011c3380380620011c3833981016040819052620006969162000852565b600080546001600160a01b0319166001600160a01b039290921691909117905562000884565b601b83019183908215620006fc579160200282015b82811115620006fc578251620006eb90839060096200070e565b5091602001919060090190620006d1565b506200070a9291506200075b565b5090565b82600981019282156200074d579160200282015b828111156200074d5782516200073c90839060096200077c565b509160200191906001019062000722565b506200070a92915062000812565b808211156200070a57600062000772828262000828565b506009016200075b565b600183019183908215620008045791602002820160005b83821115620007d357835183826101000a81548160ff021916908360ff160217905550926020019260010160208160000104928301926001030262000793565b8015620008025782816101000a81549060ff0219169055600101602081600001049283019260010302620007d3565b505b506200070a9291506200083c565b808211156200070a576000815560010162000812565b506200083990600981019062000812565b50565b808211156200070a576000815560010162000812565b6000602082840312156200086557600080fd5b81516001600160a01b03811681146200087d57600080fd5b9392505050565b61092f80620008946000396000f3fe608060405234801561001057600080fd5b506004361061004c5760003560e01c80633e7c838f14610051578063663ea2e214610079578063c54d8fd3146100a4578063e235ad2a146100c4575b600080fd5b61006461005f366004610543565b6100d7565b60405190151581526020015b60405180910390f35b60005461008c906001600160a01b031681565b6040516001600160a01b039091168152602001610070565b6100b76100b2366004610621565b61018a565b60405161007091906106d2565b6100646100d2366004610543565b6101a1565b60006100e282610222565b6101335760405162461bcd60e51b815260206004820152601960248201527f5468697320626f61726420646f6573206e6f742065786973740000000000000060448201526064015b60405180910390fd5b61013f858585856101a1565b61017f5760405162461bcd60e51b815260206004820152601160248201527046696c65642070726f6f6620636865636b60781b604482015260640161012a565b506001949350505050565b610192610443565b61019b82610360565b92915050565b6000805460405163711ad69560e11b81526001600160a01b039091169063e235ad2a906101d8908890889088908890600401610760565b602060405180830381865afa1580156101f5573d6000803e3d6000fd5b505050506040513d601f19601f8201168201806040525081019061021991906107e4565b95945050505050565b60006001815b6003811015610359576001915060005b6001826003811061024b5761024b61080d565b505060098110156103375760005b6001836003811061026c5761026c61080d565b6009020182600981106102815761028161080d565b50506009811015610326576001836003811061029f5761029f61080d565b6009020182600981106102b4576102b461080d565b0181600981106102c6576102c661080d565b602081049091015460ff601f9092166101000a90041686826102e9856009610839565b6102f39190610850565b605181106103035761030361080d565b6020020151146103165760009350610326565b61031f81610863565b9050610259565b5061033081610863565b9050610238565b50811515600103610349575092915050565b61035281610863565b9050610228565b5092915050565b610368610443565b6000600344423386604051602001610383949392919061087c565b6040516020818303038152906040528051906020012060001c6103a691906108d7565b9050600181600381106103bb576103bb61080d565b60408051610120810190915291600991820201906000835b8282101561043757604080516101208101918290529085840190600990826000855b825461010083900a900460ff168152602060019283018181049485019490930390920291018084116103f55790505050505050815260200190600101906103d3565b50505050915050919050565b6040518061012001604052806009905b61045b610471565b8152602001906001900390816104535790505090565b6040518061012001604052806009906020820280368337509192915050565b634e487b7160e01b600052604160045260246000fd5b6040805190810167ffffffffffffffff811182821017156104c9576104c9610490565b60405290565b604051610a20810167ffffffffffffffff811182821017156104c9576104c9610490565b600082601f83011261050457600080fd5b61050c6104a6565b80604084018581111561051e57600080fd5b845b81811015610538578035845260209384019301610520565b509095945050505050565b600080600080610b2080868803121561055b57600080fd5b61056587876104f3565b9450604087605f88011261057857600080fd5b6105806104a6565b8060c089018a81111561059257600080fd5b838a015b818110156105b7576105a88c826104f3565b84526020909301928401610596565b508197506105c58b826104f3565b9650505050508661011f8701126105db57600080fd5b6105e36104cf565b9086019080888311156105f557600080fd5b61010088015b838110156106135780358352602092830192016105fb565b509598949750929550505050565b60006020828403121561063357600080fd5b813567ffffffffffffffff8082111561064b57600080fd5b818401915084601f83011261065f57600080fd5b81358181111561067157610671610490565b604051601f8201601f19908116603f0116810190838211818310171561069957610699610490565b816040528281528760208487010111156106b257600080fd5b826020860160208301376000928101602001929092525095945050505050565b610a20810181836000805b60098082106106ec575061072d565b835185845b8381101561071257825160ff168252602092830192909101906001016106f1565b505050610120949094019350602092909201916001016106dd565b5050505092915050565b8060005b600281101561075a57815184526020938401939091019060010161073b565b50505050565b610b20810161076f8287610737565b60408083018660005b600281101561079f5761078c838351610737565b9183019160209190910190600101610778565b505050506107b060c0830185610737565b61010082018360005b60518110156107d85781518352602092830192909101906001016107b9565b50505095945050505050565b6000602082840312156107f657600080fd5b8151801515811461080657600080fd5b9392505050565b634e487b7160e01b600052603260045260246000fd5b634e487b7160e01b600052601160045260246000fd5b808202811582820484141761019b5761019b610823565b8082018082111561019b5761019b610823565b60006001820161087557610875610823565b5060010190565b8481526000602085818401526bffffffffffffffffffffffff198560601b166040840152835160005b818110156108c1578581018301518582016054015282016108a5565b5060009301605401928352509095945050505050565b6000826108f457634e487b7160e01b600052601260045260246000fd5b50069056fea2646970667358221220f69c856752bdcb28e90c1f94592aebccb9dda865ef836ec5964f7ee47240ae1564736f6c63430008110033",
  "linkReferences": {},
  "deployedLinkReferences": {}
}